:020000040800F2
:1000000000000120050300080B030008110300088D
:1000100033030008390300085B03000800000000F8
:100020000000000000000000000000007D03000848
:100030008303000800000000890300088F03000804
:10004000AD030008AD030008AD030008AD030008D0
:10005000AD030008AD030008010600083D060008D6
:10006000AD030008AD030008AD030008AD030008B0
:10007000AD030008AD030008AD030008AD030008A0
:10008000AD030008AD030008AD0300080000000048
:10009000000000000000000000000000AD030008A8
:1000A000AD030008AD030008AD030008AD03000870
:1000B000AD030008AD030008AD030008AD03000860
:1000C000AD030008AD030008AD030008AD03000850
:1000D000AD030008AD030008AD03000800000000F8
:1000E000AD030008AD030008AD03000800000000E8
:1000F000000000000000000000000000AD03000848
:1001000000000000AD030008AD030008AD030008C7
:1001100000000000000000000000000000000000DF
:10012000AD030008AD030008AD030008AD030008EF
:10013000AD03000800000000000000000000000007
:10014000000000000000000000000000AD030008F7
:10015000AD030008AD030008AD030008AD030008BF
:10016000AD030008AD03000800000000000000001F
:10017000000000000000000000000000000000007F
:1001800000000000AD0300080000000000000000B7
:10019000AD03000880B596B000AF00F037F94F4BC3
:1001A0007B6524E07B6D1A1D7A651B683B647B6D63
:1001B0001A1D7A651B68FB637B6D1A1D7A651B68C7
:1001C000BB633B6C7B63FB6B3B63BB6BFB623B6B5F
:1001D000BB6207E07A6B131D7B63BB6A191DB962B2
:1001E00012681A60FA6ABB6A9A42F3D800BF7B6D44
:1001F0003B4A9342D6D33B4B3B651AE03B6D1A1DFD
:100200003A651B68BB643B6D1A1D3A651B687B64CD
:10021000BB6C7B627B6C3B627B6AFB6104E0FB69CD
:100220001A1DFA6100221A603A6AFB699A42F6D8EE
:1002300000BF3B6D2C4A9342E0D300F0F5F83A1D25
:1002400007F108031146184600F0CEF8274A284B5C
:10025000D31A9B103B610023FB6007E0244AFB6834
:1002600052F823309847FB680133FB603A69FB681A
:100270009A42F3DC1F4A204BD31A9B103B610023A8
:10028000FB6007E01C4AFB6852F823309847FB6884
:100290000133FB603A69FB689A42F3DC00BFBB683C
:1002A0007A681146184600F06BF9F864134A144B4B
:1002B000D31A9B10BB61BB697B6108E07B69013B82
:1002C0000F4A52F8233098477B69013B7B617B6979
:1002D000002BF3DC00BFF86C00F080F8B4030008DA
:1002E000CC030008CC030008DC030008DC03000892
:1002F000DC030008DC030008DC030008DC03000862
:10030000DC0300082548004700BF80B400AFFEE7CB
:100310001EF0040F0CBFEFF30880EFF30980714665
:100320001F4A104700BF80B483B000AF78603960C7
:10033000FEE780B400AFFEE71EF0040F0CBFEFF342
:100340000880EFF309807146164A104700BF80B459
:1003500083B000AF78603960FEE71EF0040F0CBF79
:10036000EFF30880EFF3098071460F4A104700BF92
:1003700080B483B000AF78603960FEE780B400AF2E
:10038000FEE780B400AFFEE780B400AFFEE780B4C4
:1003900000AF00BFBD4680BC70470000950100085B
:1003A000270300084F0300087103000880B400AF62
:0203B000FEE766
:1003B400AC0E00080000002020000020AC0E000855
:1003C4000000001000000010200000202400002085
:0803D400000000100000001001
:1003DC0080B582B000AF786000F03CF880B483B098
:1003EC0000AF786039607B6801221A603B68034A71
:1003FC001A6000BF0C37BD4680BC7047000000205F
:10040C0080B500AF00F02AF8024B034A9A6000BF97
:10041C0080BD00BF00ED00E00000000880B500AF1B
:10042C0000F028F800BF80BD80B400AFBFF34F8F41
:10043C0000BF064BDB6803F4E0620449044B134332
:10044C00CB60BFF34F8F00BF00BFFDE700ED00E0B6
:10045C000400FA0580B500AFFFF7E6FF80B400AFEB
:10046C00034B4FF000629A6000BFBD4680BC7047E2
:10047C0000ED00E080B487B000AF00233B610023A7
:10048C007B610223FB600023BB6002237B60344B47
:10049C009B6803F00C033B613B69082B11D03B6953
:1004AC00082B44D83B69002B03D03B69042B04D0A8
:1004BC003DE02C4B2C4A1A603DE02A4B2B4A1A602B
:1004CC0039E0274B5B689B0D03F00103BB60244BA9
:1004DC005B6803F03F037B60BB68002B0CD0234AA6
:1004EC007B68B2FBF3F31E4A52689209C2F308020E
:1004FC0002FB03F37B610BE01B4A7B68B2FBF3F35B
:10050C00174A52689209C2F3080202FB03F37B619B
:10051C00134B5B681B0C03F0030301335B00FB60A4
:10052C007A69FB68B2FBF3F30E4A136003E00D4BE0
:10053C000D4A1A6000BF0A4B9B681B0903F00F039E
:10054C000B4AD35C3B61074B1A683B6922FA03F3F5
:10055C00044A136000BF1C37BD4680BC704700BF07
:10056C0000380240080000200024F40000127A0039
:10057C009C0E000880B582B000AF00F003FA00209A
:10058C0000F00EFA012000F00BFA022000F008FA3D
:10059C006E2000F005FA00220021422000F0BAFB88
:1005AC00002000F05DFC00220121432000F0B2FB92
:1005BC00012000F055FC00237B6009E07B68D9B278
:1005CC0000230122412000F04DFA7B6801337B604F
:1005DC007B68062BF2D900F049F800237B6002E01F
:1005EC007B6801337B607B68014A9342F8D9F2E760
:1005FC003F420F0080B400AF0B4B1B78082B03D984
:10060C00094B09221A7005E0074B1B780133DAB24B
:10061C00054B1A70054B5B69044A43F001035361A7
:10062C0000BFBD4680BC704721000020003C01404B
:10063C0080B400AF0B4B1B78002B03D1094B00226D
:10064C001A7005E0074B1B78013BDAB2054B1A70A8
:10065C00054B5B69044A43F00203536100BFBD467E
:10066C0080BC704721000020003C014080B500AFE9
:10067C00C34B1B78092B00F27F8101A252F823F0A7
:10068C00B5060008FD060008450700088D070008A0
:10069C00D50700081D08000865080008AD0800080B
:1006AC00F50800083D09000801220021412000F056
:1006BC003DFA01220121412000F038FA01220221E9
:1006CC00412000F033FA01220321412000F02EFAE0
:1006DC0001220421412000F029FA012205214120A8
:1006EC0000F024FA00220621412000F01FFA44E118
:1006FC0000220021412000F019FA012201214120A1
:10070C0000F014FA01220221412000F00FFA00221D
:10071C000321412000F00AFA00220421412000F0BC
:10072C0005FA00220521412000F000FA00220621E2
:10073C00412000F0FBF920E101220021412000F0D2
:10074C00F5F901220121412000F0F0F900220221EB
:10075C00412000F0EBF901220321412000F0E6F9E1
:10076C0001220421412000F0E1F900220521412061
:10077C0000F0DCF901220621412000F0D7F9FCE061
:10078C0001220021412000F0D1F901220121412058
:10079C0000F0CCF901220221412000F0C7F901221E
:1007AC000321412000F0C2F900220421412000F075
:1007BC00BDF900220521412000F0B8F901220621E3
:1007CC00412000F0B3F9D8E000220021412000F0D4
:1007DC00ADF901220121412000F0A8F901220221EA
:1007EC00412000F0A3F900220321412000F09EF9E2
:1007FC0000220421412000F099F901220521412019
:10080C0000F094F901220621412000F08FF9B4E0A8
:10081C0001220021412000F089F900220121412010
:10082C0000F084F901220221412000F07FF901221D
:10083C000321412000F07AF900220421412000F02C
:10084C0075F901220521412000F070F901220621E1
:10085C00412000F06BF990E001220021412000F0D2
:10086C0065F900220121412000F060F901220221EA
:10087C00412000F05BF901220321412000F056F9E0
:10088C0001220421412000F051F9012205214120CF
:10089C0000F04CF901220621412000F047F96CE0F0
:1008AC0001220021412000F041F9012201214120C7
:1008BC0000F03CF901220221412000F037F900221E
:1008CC000321412000F032F900220421412000F0E4
:1008DC002DF900220521412000F028F900220621E3
:1008EC00412000F023F948E001220021412000F0D2
:1008FC001DF901220121412000F018F901220221E9
:10090C00412000F013F901220321412000F00EF9DF
:10091C0001220421412000F009F901220521412086
:10092C0000F004F901220621412000F0FFF824E038
:10093C0001220021412000F0F9F80122012141207F
:10094C0000F0F4F801220221412000F0EFF801221E
:10095C000321412000F0EAF800220421412000F09C
:10096C00E5F801220521412000F0E0F801220621E2
:10097C00412000F0DBF800E000BF00BF80BD00BFED
:10098C002100002080B400AF044B1B68034A43F0E5
:10099C000103136000BFBD4680BC704700380240A5
:1009AC0080B485B000AF0346FB71FB795B09FB7328
:1009BC00FB7903F01F03BB73FB7B032B36D801A21F
:1009CC0052F823F0E1090008F70900080D0A0008A5
:1009DC00230A0008184B1B68BA7B012101FA02F2AA
:1009EC001146154A0B43136021E0144B1B68BA7B6C
:1009FC00012101FA02F21146104A0B43136016E072
:100A0C000F4B1B68BA7B012101FA02F211460C4A0A
:100A1C000B4313600BE00B4B1B68BA7B012101FAF3
:100A2C0002F21146074A0B43136000E000BF00BFFF
:100A3C001437BD4680BC7047303802403438024011
:100A4C00403802404438024080B483B000AF0346C3
:100A5C00FB71FB79413BDBB218460C37BD4680BCC1
:100A6C007047000090B585B000AF044608461146AB
:100A7C001A462346FB710346BB710B467B7113462A
:100A8C003B713B7903F00103FB733B795B08BB7350
:100A9C00FB791846FFF7D8FF03461A46224B53F84A
:100AAC002230BB60BB681B68BA795200032101FA83
:100ABC0002F2D2431A40BB681A60BB681B68797992
:100ACC00BA79520001FA02F21A43BB681A60BB6889
:100ADC005B68BA79012101FA02F2D2431A40BB6871
:100AEC005A60BB685B68F97BBA7901FA02F21A4367
:100AFC00BB685A60BB68DB68BA795200032101FA03
:100B0C0002F2D2431A40BB68DA60BB68DB68B97B7F
:100B1C00BA79520001FA02F21A43BB68DA6000BFDC
:100B2C001437BD4690BD00BF0C00002080B584B0CA
:100B3C0000AF0346FB710B46BB7113467B71FB790F
:100B4C001846FFF781FF03461A460D4B53F8223027
:100B5C00FB60FB685B69BA79012101FA02F2D243AE
:100B6C001A40FB685A61FB685B697979BA7901FABA
:100B7C0002F21A43FB685A6100BF1037BD4680BDB4
:100B8C000C00002080B485B000AF03460A46FB7110
:100B9C001346BB715D4BFB60BB79032B26D8FB68FE
:100BAC009B68BA7902F0030292000F2101FA02F25B
:100BBC00D2431A40FB689A60FB689B68FA79A2F1F1
:100BCC004101BA7902F00302920001FA02F21A43CF
:100BDC00FB689A604E4B1B68BA790632012101FA08
:100BEC0002F211464A4A0B43136089E0BB79032B8E
:100BFC0033D9BB79072B30D8FB68DB68BA7902F0A4
:100C0C00030292000F2101FA02F2D2431A40FB6850
:100C1C00DA60FB68DB68FA79A2F14101BA7902F07B
:100C2C000302920001FA02F21A43FB68DA60BB7904
:100C3C00042B0BD1364B1B68BA790632012101FA11
:100C4C0002F21146324A0B43136059E0304B1B68D9
:100C5C002F4A43F40003136052E0BB79072B2FD9C2
:100C6C00BB790B2B2CD8FB681B69BA7902F00302F9
:100C7C0092000F2101FA02F2D2431A40FB681A616A
:100C8C00FB681B69FA79A2F14101BA7902F00302FF
:100C9C00920001FA02F21A43FB681A61BB79082B25
:100CAC0002D0BB79092B06D1194B1B68184A43F4A7
:100CBC000003136024E0164B154A1B6813601FE0F9
:100CCC00FB685B69BA7902F0030292000F2101FA0A
:100CDC0002F2D2431A40FB685A61FB685B69FA79ED
:100CEC00A2F14101BA7902F00302920001FA02F278
:100CFC001A43FB685A61064B054A1B681360FFE7F1
:100D0C0000BF1437BD4680BC704700BF003801409F
:100D1C0000E100E080B582B000AF0346FB710B46EA
:100D2C00BB7113467B71B979F87902230022FFF766
:100D3C0099FE7B79032B00F28B8001A252F823F0F1
:100D4C005D0D00089D0D0008DD0D00081B0E000850
:100D5C00BA79FB7911461846FFF714FF3F4B1B6815
:100D6C00DA68BB79012101FA03F319463B4B1B6886
:100D7C000A43DA60394B1B689A68BB79012101FA86
:100D8C0003F3DB431946354B1B680A409A6060E05D
:100D9C00BA79FB7911461846FFF7F4FE2F4B1B6806
:100DAC009A68BB79012101FA03F319462B4B1B6896
:100DBC000A439A60294B1B68DA68BB79012101FA56
:100DCC0003F3DB431946254B1B680A40DA6040E00D
:100DDC00BA79FB7911461846FFF7D4FE1F4B1B68F6
:100DEC00DA68BB79012101FA03F319461B4B1B6826
:100DFC000A43DA60194B1B689A68BB79012101FA26
:100E0C0003F31946154B1B680A439A6021E0BA7923
:100E1C00FB7911461846FFF7B5FE104B1B68DA68D4
:100E2C00BB79012101FA03F3DB4319460B4B1B6819
:100E3C000A40DA60094B1B689A68BB79012101FAF8
:100E4C0003F3DB431946054B1B680A409A6000E02C
:100E5C0000BF00BF0837BD4680BD00BF1C0000208E
:100E6C0080B483B000AF0346FB71084B1B681A6853
:100E7C00FB79012101FA03F31946044B1B680A4361
:100E8C001A6000BF0C37BD4680BC70471C000020A8
:100E9C00000000000000000001020304060708091E
:100EAC0020000020000000000024F400000002409C
:100EBC00000402400008024000080240003C0140CF
:040000050800019559
:00000001FF
